:020000042000DA
:1000000018481949086006C881F30888104717483E
:100010000068002801D01648F3E71649164A002068
:1000200000E001C19142FCD1144988471449884736
:100030001449884700BEFDE7106E0020106E0020B6
:10004000086F0020000004200000042000000420AD
:100050000010042000100420001004200000000004
:10006000704700000001002008ED00E0000000D013
:1000700000000000086F0020CC760220412C0020F8
:100080007D040020392C002006005250ABB3605391
:10009000546A002006005250861C03026C6A00203D
:1000A000060052505422A29D746A0020F2EB88711F
:1000B000F06D0020106E00203800002090A31AE799
:1000C0000000000000000000000000000000000030
:1000D0000000000000000000000000000000000020
:1000E0000000000000000000000000000000000010
:1000F0000000000000000000000000000000000000
:10010000002004200F000020C3010020C5010020B2
:10011000C1010020C1010020C1010020C101002057
:10012000C1010020C1010020C1010020C701002041
:10013000C1010020C1010020C9010020CB01002025
:10014000CD010020CD010020CD010020CD010020F7
:10015000CD010020CD010020CD010020CD010020E7
:10016000CD010020CD010020CD010020CD010020D7
:10017000CD010020CD010020CD010020CD010020C7
:10018000CD010020CD010020CD010020CD010020B7
:10019000CD010020CD010020CD010020CD010020A7
:1001A000CD010020CD010020CD010020CD01002097
:1001B000CD010020CD010020CD010020CD01002087
:1001C00000BE00BE00BE00BE00BE00BEEFF3058054
:1001D000103800BEF0B5C646160000B504001F007A
:1001E0000268EFF3108872B61368002BFCD0BFF3DF
:1001F0005F8F65686B1C0ED02368BFF35F8F002292
:100200001A6088F3108800F089FAA8420FD1002004
:1002100080BCB846F0BD00F081FA23686060BFF38F
:100220005F8F00221A6088F310880120F0E700F049
:1002300075FA804606E032003B00200000F0E6FA46
:100240000028E4D12268EFF3108172B61368002B06
:10025000FCD0BFF35F8F65680135ECD14346636026
:100260002368BFF35F8F00221A6081F3108801209A
:10027000CEE7C04610B50268EFF3108172B613687E
:10028000002BFCD0BFF35F8F01235B42436000F083
:100290005BFA10BD00B53F2083B002F059FF142374
:1002A0000100009300223F20173303F0D9FF03B071
:1002B00000BDC04600B5352083B002F049FF1423CD
:1002C0000100009300223520123303F0C9FF03B070
:1002D00000BDC04600B55A2083B002F039FF142398
:1002E0000100009300227A200D3303F0B9FF03B020
:1002F00000BDC04600B5412083B002F029FF1423A1
:100300000100009300226120083303F0A9FF03B02D
:1003100000BDC04600B57A2083B002F019FF142357
:100320000100009300225A20033303F099FF03B029
:1003300000BDC04600B5612083B002F009FF142360
:100340000100009300224120023B03F089FF03B02B
:1003500000BDC04610B584B002AC22000E4B03CBEA
:1003600003C2200002F0E2FE00280CD02423002269
:1003700000930C203133029903F0ACFF2379002B5A
:1003800005D004B010BD5421044805F0BDFF56212E
:10039000024805F0B9FFC046006B0020BC67002092
:1003A000012300B585B06A460293002302A81373A7
:1003B00002F0BCFE00280DD124230022009302206D
:1003C0002633029903F086FF6B461B7B002B05D07A
:1003D00005B000BD4921034805F096FF4B210248B6
:1003E00005F092FFD8670020BC67002000B585B0FB
:1003F00000236A4602A80293137302F097FE0028B6
:100400000DD124230022009301201B33029903F015
:1004100061FF6B461B7B002B05D105B000BD3E2163
:10042000034805F071FF4021014805F06DFFC0460B
:10043000D867002010B584B002AC22000B4B03CB70
:1004400003C2200002F06EFE24230022009300204D
:100450001033029903F03EFF2379002B01D104B041
:1004600010BD3521024805F04FFFC046086B002043
:10047000D86700207047C0467047C04610B502F0EC
:10048000EBFC1E4802F038FD1D4806F069F86122B9
:100490001C491D4805F0DEFF62221C491C4805F07E
:1004A000D9FF63221B491C4805F0D4FF64221B4975
:1004B0001B4805F0CFFF65221A491B4805F0CAFF0B
:1004C00066221A491A4805F0C5FF672219491A48D9
:1004D00005F0C0FF68221949194805F0BBFF6922E1
:1004E0001849194805F0B6FF6A221849184805F05E
:1004F000B1FF06F047F8002010BDC046F4670020A9
:10050000046800203C680020350300206468002057
:10051000150300208C680020F5020020B46800203C
:10052000D5020020DC680020B5020020F46800201D
:100530009502002014690020350400204469002041
:10054000ED0300207C690020A1030020B869002091
:10055000550300200FB400B5084883B002F0CCFC6E
:10056000049B002B07D005A91800019102F046FB5F
:10057000034802F0C1FC012002F058FBF0690020A2
:10058000006A0020F0B5C646431E00B50A3314D8F1
:10059000072304001A000834224023426CD01300C1
:1005A000093BA34209D31030841A00F0B1FC374A4A
:1005B00027001568002D28D10EE000F0A9FC334A71
:1005C0001368002B06D0002500F0AAFC280080BC90
:1005D000B846F0BD0027002407202D4D2B00290030
:1005E000284245D100202B4E706031602A4EB4461F
:1005F00007266544B5431560284AEB1A1360284A5C
:100600006860286013604B600D60002FDBDD244FB5
:100610003E68A642D7D31F48036804E01A68002A40
:1006200004D0180013005968A142F7D3AB42CAD0D6
:100630001D001A680835904602600A1B102A05D969
:1006400019194A6042460A6001602100134A761A6D
:1006500010683E60864200D21660802212060A436D
:100660005A6000221A600F4A136801331360ABE727
:10067000EB1D83431900B5E700F04AFC034A27004D
:100680001568002DA8D0002CC1DA9CE7B4720020B8
:1006900058760020A0760220F8FF0100787602202C
:1006A00074760220847602208022044B52051A6060
:1006B000BFF34F8FBFF36F8F7047C04604ED00E06C
:1006C00072B6044A136801331360BFF34F8FBFF350
:1006D0006F8F70475C760220094A1368013B1360F4
:1006E000002B0CD107490A68002A07D00B60064985
:1006F0000968BFF35F8F136081F3108862B670479B
:100700005C7602203C75002058760220EFF31080C2
:1007100072B6704780F310887047C046D02310B57A
:100720001B061868074B1B78834200D010BDEFF3FF
:100730000583002B02D05B00C018F7E700F0CCFD6A
:10074000F4E7C046106E00200A002A4903688C4670
:10075000022130B563449B10FF319940264B83B092
:100760001C78D0231B061B68090A9C421FD040BF7F
:10077000224D03682C68A34234D02368002BFCD0A0
:10078000BFF35F8F1E4C23680B4323602B68BFF3BE
:100790005F8F002119600368D020002100064165A9
:1007A000BFF35F8F196082F3108803B030BD40BF84
:1007B0000368BFF35F8F00241C6082F31088EFF39F
:1007C0000583104ADBB21068002B10D001AA0194F7
:1007D00000F0A4F9019B002BE7D080220A4B5205C0
:1007E0001A60E2E7064C206808432060D4E700F076
:1007F0004BF9DAE700FFFF2F106E0020A8720020EF
:10080000607602207076022004ED00E0F0B5CE465E
:10081000474680B51D00324B14001A78D0231B06C2
:100820001B688046894683B09A420FD00368BFF3A5
:100830005F8F00221A6081F310882000290001F0E8
:10084000EDFA03B0C0BCB946B046F0BD01F0A0FB64
:1008500026002F00361A8F41012122484942801973
:10086000794143461E6800291EDC19D0BFF35F8F13
:100870000023336089F310881B4B5A6A954205D8D0
:100880009B6A0120A342DCD29542DAD18022174B29
:1008900052051A60BFF34F8FBFF36F8F0020D0E770
:1008A000FA239B009842E1D3FA220023920001F040
:1008B00015FE031EDAD049460D4A16600D4A116036
:1008C0000D4A022194466644B610FF31B1400B4AEE
:1008D000090A106800930122002300F079F8CBE7A1
:1008E000106E002018FCFFFF0040054004ED00E002
:1008F0003C7500205876022000FFFF2F7076022002
:1009000010B500F059FE054A054B9446604480003E
:10091000186000F051F8034B186010BD400000341F
:10092000A872002070760220F8B5DE4657464E4683
:100930004546E0B505000F00060000F0E9FA296819
:100940002C6939430C362960A6422CD000239846E6
:100950008023DB049B4680235B049A4680239B0410
:1009600099460FE06746002F0AD057463A4202D018
:1009700042461A4390464B46194300F063FC2968EF
:10098000A6420ED020000F000268646813021B0A02
:100990001F40BC465F463A42E4D06345E5D0A642DC
:1009A000F0D143469943296000F0BAFAF0BCBB4647
:1009B000B246A946A046F8BD10B51C20FFF7E2FDDF
:1009C000041E03D0002308C000F0B4F8200010BDBE
:1009D000F0B5C6460D00060000B51F00904600F0B9
:1009E00097FA2B0034682340002F0DD1002B28D01C
:1009F0004346002B28D02300AB43336000F090FA2D
:100A0000200080BCB846F0BD9D42F1D0069B002B73
:100A10001AD0434680215A1E9341C9041B0619432C
:100A2000069A2943301D00F045FB00F079FA0028B2
:100A300024D000F089FC040083010DD52402240A8F
:100A4000DEE7069B002B02D100F06AFAD8E74146A8
:100A50004B1E99410906E3E7FFF732FE3468230095
:100A60002B40002F0DD1002B05D04346002B02D088
:100A70002300AB433360FFF72FFEDFE7FFF714FEE1
:100A8000D7E7AB42F7D1F0E7F8B5DE4657464E461A
:100A90004546E0B505000F00060000F039FA296868
:100AA0002C6939430C362960A6422CD00023984685
:100AB0008023DB049B4680235B049A4680239B04AF
:100AC00099460FE06746002F0AD057463A4202D0B7
:100AD00042461A4390464B46194300F0B3FB29683F
:100AE000A6420ED020000F000268646813021B0AA1
:100AF0001F40BC465F463A42E4D06345E5D0A6427B
:100B0000F0D143469943296000F00AFA2868F0BC06
:100B1000BB46B246A946A046F8BDC04610B5044C37
:100B200013000A000100200000F01AFC10BDC046AE
:100B3000290900200300083301224360C3600361D8
:100B400000235242826003607047C046030030B504
:100B50000D6808336A1C0DD01C005B681A68AA4235
:100B6000FAD94B60996003688C6001336160086159
:100B7000036030BD04696368F3E7C04603694168F8
:100B800082688A6051605968814205D00022026102
:100B900018680138186070475A60F7E7F0B5C64624
:100BA00000B5846C82B0A26BE36B002501909A4281
:100BB00004D3280002B080BCB846F0BD4523226CA7
:100BC000E65CA76B76B2002A1CD0606801A902F02F
:100BD00007F86368226C9B18A2686360934201D394
:100BE0002368636000250137A763731C15D1636A0E
:100BF000002BDED02000243000F0BEFA0028D8D030
:100C00000125D6E723689846002BEBD1A06800F0B9
:100C100069FB43460500A360E5E700F045FA86421C
:100C2000C7D24523013676B2E654C2E7F8B5574637
:100C3000DE464E4645460400E0B592461D000F00D4
:100C4000FFF764FDA26BE36B06009A423BD30023DF
:100C50009846022D09D03000FFF75CFD4046F0BCFD
:100C6000BB46B246A946A046F8BD4533E35C226CBC
:100C70005BB29846A36B9B46A36B9946002A2DD086
:100C80003900E06801F0ACFF226CE36851429B1A26
:100C90002268E360934202D2A3685B18E3604B468C
:100CA000022D51D00133A363434601333DD000F000
:100CB000FBF9804504D24346452201335BB2A3547D
:100CC00001239846C7E74523E35C226C5BB2984654
:100CD000A36B9B46A36B9946002A11D12768002F6E
:100CE00046D04B460133A36343460133DFD1A36CA7
:100CF000002B33D0022D1BD15B46002B18D0DFE731
:100D0000002DBDD13900606801F06AFF4946636873
:100D1000226C01319B18A2686360934201D323685F
:100D200063604346A1630133C1D1A36C002B15D08E
:100D30002000FFF733FF0028C2D05346002BBFD05E
:100D4000012352461360BBE7002B00D10123A363AC
:100D500043460133ABD1A36C002BCDD1636A002B8A
:100D6000AED02000243000F007FA0028E5D1A7E734
:100D7000A06800F0B7FAA760B3E7C046F0B5DE465A
:100D800057464E464546594BE0B51A6883B0013286
:100D900094461A60002A5FD055490B689C4570D371
:100DA000544B99461B681B68002B00D198E0002328
:100DB0009846514B514E9B46514B01919A4639E012
:100DC000002159611168013911609A6A002A0ED018
:100DD000D969186A556888604160190018318D42D8
:100DE00000D173E000219962116801391160524607
:100DF000D96A1268914201D9524611608A0052188C
:100E00009200B518686887689860DF607C608460CD
:100E10005D61B3580133B3505B461B684246DB6AE1
:100E20008B429B415B421A434B461B6890461B68B2
:100E3000002B50D04B461B68DB68DB685A68944532
:100E400046D35A699868D9681C1D8160486050680B
:100E5000A042B5D15160B3E7264B2A4A1968106801
:100E60001860116028490A6801320A601A6812681D
:100E7000002A25D101231E495B420B600B689C456B
:100E80008ED2002398461C4B1C4E9B465B4601208D
:100E90001B681E4AD96A12688B005B189B00F358C6
:100EA0009842804113005A1E9341404218434346E2
:100EB000184303B0F0BCBB46B246A946A046F0BDFD
:100EC0001B680B49DB681B680B6066E7506089E7AD
:100ED00001990A60DAE7019901235B420B60D5E7CB
:100EE0009846054B054E9B46F6E7C046BC76022069
:100EF0007C760220B0720020AC720020BC72002010
:100F00006C760220B872002080760220C47602201F
:100F1000024A1368013313607047C04668760220A6
:100F2000F0B5DE4657464E464546E0B583B0FFF77E
:100F3000C7FB534C2368013B23602368002B00D080
:100F400081E0504B1B68002B7DD04F4B9C461B68AB
:100F5000002B00D190E04D4B4D4D98464D4B0194E8
:100F600099464D4B9A4600239B466346DB68DB68F7
:100F7000D869196A9A6A8160486018005668183002
:100F8000864200D172E059469962116801391160B8
:100F90005A699868D968566881604860181D864209
:100FA00062D01168013911604146DA6A09688A42E3
:100FB00001D941460A60910089188C002E19716888
:100FC0008F689960DF60786088605E612B590133BB
:100FD0002B514B461B68DB6A9A423FD9534601228C
:100FE0001A6063461B68002BBFD12C4B019C1A680A
:100FF0001268002A3CD01B68DB681A68284B1A600C
:10100000284E3568002D14D0012708E0FFF7B6FE02
:10101000002801D053461F60013D002D08D02368F1
:10102000002BF3D03368013D01333360002DF6D13E
:10103000356053461B68002B05D0164B01241B68F6
:10104000FFF732FB00E00024FFF746FB200003B06F
:10105000F0BCBB46B246A946A046F0BD63461B683D
:10106000002B00D081E7C0E751609AE751608AE722
:101070000B4B013A1A60C3E7074B9A46C0E7C046DC
:1010800068760220647602208C7602206C7602203C
:10109000BC720020AC720020C4760220B072002026
:1010A0007C76022088760220014B18687047C04683
:1010B000647602208023F0B5C646294C15001B0635
:1010C00022680B4300B59361226843689968D36135
:1010D00022681162226818324A60226800211832A0
:1010E0009A60236898620368013303601D4B1E6891
:1010F0001D4B1F681D4B1B68226898466D23206896
:10110000D1540430FFF73AFD6B1C15D023682168D9
:10111000AD195D600431AE4205D94046FFF716FDBA
:1011200080BCB846F0BD3800FFF710FD104B1A68C0
:101130009542F5D21D60F3E70E4B21685A688A602C
:1011400090682168C86021680431416021680431D9
:101150009160226853611A6801321A60E0E7C04664
:10116000AC720020BC760220B0720020B872002061
:101170007C760220A8760220C368F0B5DB68D869C7
:10118000196A9A6A8160486018005468183084426D
:1011900041D000219962116801391160234AD96A4E
:1011A0001268002A29D15A699C68D8681D1DA06060
:1011B00044605468AC4230D01068013810601C4A5A
:1011C0001068884225D38A001A485218920086185F
:1011D0007468A7689C60DF607D60A5605E6183586D
:1011E00001338350144B00201B68DB6A8B4203D20F
:1011F0000122124B01301A60F0BD114A5468A568F3
:10120000DC611D626860A0609A621368013313603C
:10121000E8E71160D7E75160BBE75060106801381C
:101220001060034A10688842CDD2F2E76876022047
:101230006C760220BC720020AC720020C4760220C2
:101240008C76022080231B06F0B5026944680B43AC
:1012500081680360C368A1604C60546884422ED0EA
:101260000021016111689868013911605A69D968D3
:101270001D1D816048605068A84222D01168013964
:101280001160114AD96A1068814200D911608A0040
:101290000E485218920086187468A7689C60DF6038
:1012A0007D60A5605E61835801338350084B1B68E5
:1012B000DB6A994202D90122064B1A60F0BD5160E7
:1012C000CEE75160DAE7C0466C760220BC7200209F
:1012D000AC720020C4760220014B18687047C046EB
:1012E000AC72002070B5041E08D0036DC16AC26CD8
:1012F000013B0365914201D0002B01D0002070BD5D
:10130000051D2800FFF73AFC2023E26C9B1AA3611D
:101310000B4BE26219688A4200D91A6093000949AE
:101320009B189B00C81842689668A260E6607560CA
:101330009560CA58606101320120CA50DFE7C0469B
:101340006C760220BC720020044B1A681968906900
:101350001A682023C96A5B1A93617047AC72002037
:1013600030B514001A0002230D0085B05B420093D3
:10137000054B019069461868002302950394FFF716
:1013800055FC05B030BDC046C0760220F8B5DE463B
:101390004E4657464546E0B58B4605000A9918006B
:1013A000160001F075F80A9B6C001F02324B64199D
:1013B0009C46A4006444636881469F4200D96760EC
:1013C0002B1FDBB29846012B30D9C02380229B0112
:1013D000E31812011A60294BAD0059599A460029A9
:1013E0001BD17301E026226853401E4080234246F1
:1013F0005B01E3181E60012A30D9802380229B0103
:10140000E31812011A6053464A4667605A51F0BC0D
:10141000BB46B246A946A046F8BD586901F038F867
:10142000013043001B18033BFDD2DAE75B46012B7A
:10143000CBD1C02303229B01E3181A60023AA368B0
:101440001A42FCD07301E0262268AD0053401E40D2
:1014500080230A4A5B019246E3181E605A462168BF
:10146000514003220A401A6001225B469A40A36859
:101470001A42FCD0C1E7C0460080004064720020E0
:10148000F0B546464F46D646C0B51F00344B440023
:101490009C462418A4006444636888461600FF2B09
:1014A00002D880235B006360031FDBB29A46012BE6
:1014B00030D9C02380229B01E31812011A60294B06
:1014C00085005959994600291BD17301E0262268ED
:1014D00053401E40802352465B01E3181E60012AE0
:1014E00030D9802380229B01E31812011A608023E7
:1014F0005B0063604B465F51E0BCBA46B146A8460C
:10150000F0BD586900F0C4FF013043001B18033BD5
:10151000FDD2DAE74346012BCBD1C02303229B0146
:10152000E3181A60023AA3681A42FCD07301E0265D
:101530002268850053401E4080230A4A5B01914681
:10154000E3181E6042462168514003220A401A6097
:10155000012342469340A2681342FCD0C1E7C04633
:101560000080004064720020014B8000C05870472A
:101570006472002070B5EFF3108C72B60D4D2B68BD
:10158000002BFCD0BFF35F8F0724CB08C618C05CCC
:1015900001230C40A3401C000440034207D1184320
:1015A0003070BFF35F8F2C608CF3108870BD10001B
:1015B000FEF7D0FF2C0100D0044A1078431CDBB2A8
:1015C000172B00D9102313707047C046116E0020EE
:1015D0000021044B044ABFF35F8F02C39342FAD148
:1015E0007047C046000100D0800100D0094A830046
:1015F0009A1810B514684022544080322240064C9C
:10160000C000A44663441A60044B9C466044416099
:1016100010BDC04604C0014004D00140004001405C
:10162000054B064A1360064A136053609360D3600B
:1016300013615361936170478080808000E400E013
:1016400004E400E01F2318401E3B8340002905D01E
:10165000C021044A49005350136070478022014959
:101660008B50FAE700E100E070B50D00EFF3108653
:1016700072B60F4A1368002BFCD0BFF35F8F0D4B7F
:1016800010309B6884001B590B4A934203D09D4243
:1016900001D000F005FE074B9B681D51BFF35F8F23
:1016A000BFF35F8F0022024B1A6086F3108870BD73
:1016B000240100D000ED00E0CD010020F0B5DE46B1
:1016C00057464E464546E0B50C0083B0EFF3108810
:1016D00072B6634A1368002BFCD0BFF35F8F614B77
:1016E00061499A68030010339F00D55901938D42D8
:1016F00043D0A54254D05D4EAA1B2F2A3DD85C4B47
:101700009B461B68994601231A009C4682404B4623
:1017100013401F2299466346024093409A46802216
:101720005B4650469850BFF35F8FEFF305839B46AF
:10173000002B37D0019B5B4501D000F0B1FD0123A8
:101740002A009A439068844208D176E04B005B18E7
:101750009B00F3189868844236D01A00062151562F
:101760000029F3DA844254D04B46002B27D0C02204
:1017700051463F4B5200995019603A4B9B68DD51DE
:10178000BFF35F8FBFF35F8F0022354B1A6088F382
:10179000108803B0F0BCBB46B246A946A046F0BDD7
:1017A0000D00EAE72A0063469A4390688442D5D147
:1017B00006201056130000280ADA0D0031E08023BD
:1017C00051462B4AD150D8E706201856002821DB75
:1017D00042001118890074188B46A1689960E1795C
:1017E000D971062161569971002924DBA488F11A68
:1017F000640524155C44091909051E4C490D214353
:10180000998013181C4A9B001178F3189971107075
:10181000AAE713005946002914D1FF3191711749E5
:10182000918015490A789A71154A9B1B5B415A436E
:10183000120D0A7098E71149E2E7062010561300CE
:101840000028C5DA0F4A1049D21A083A5002400D52
:10185000014399800D4952080A43DA8084E7C04663
:10186000240100D000ED00E0CD010020146E002026
:1018700000E100E000E0FFFFC876022001BDFFFFAD
:10188000AAAA00004E6E002000F0FFFF00F8FFFF44
:1018900070B501240443EFF30581EFF3108C72B6A9
:1018A000214A1368002BFCD0BFF35F8F1F4B05004C
:1018B0001F4AED1A6D416A43120D1E4D8900AE6834
:1018C00052B27658A6421CD00621595691421CD0DD
:1018D00012215956914222D01E215956914220D0B0
:1018E0002A2159560324914210D0134B19781A70AB
:1018F0008171BFF35F8F00220B4B1A608CF310884D
:1019000070BDAB680D4C5C50EFE700246100091915
:1019100089005B18FF21997109499980E5E7012445
:10192000F4E70224F2E7C046240100D0146E002040
:10193000AAAA000000ED00E0C8760220CD01002038
:1019400001BDFFFF024B9C46614489000160704766
:1019500040000034F8B5124C124DAC4212D20126B0
:10196000002776422368002B0DD0FFF725FE0100EB
:101970002000FFF7E7FF66602772BFF35F8F0C342C
:10198000AC42EFD3F8BDFFF717FE01002000FFF7D0
:10199000D9FF6660BFF35F8F0834AC42E2D3F1E752
:1019A000B86E0020C86E0020F0B5DE4657464E46A1
:1019B0004546E0B587B0EFF305830325B64E1D40DD
:1019C000B64BAA003000D45800F0DAFA0123AB403D
:1019D00099464A46B24BA8461A600823E55E7263F0
:1019E000002D00DB4FE1A3881BB2002B00DB93E04E
:1019F000A379002B00D0D4E0A74800F0C1FA082357
:101A0000E55E8346002D00DA06E16A006669531937
:101A1000DB00F3189F68DB689F489C46434604330D
:101A20009B001F508C4500DDF6E000D127E14846C1
:101A3000994B5863B2465219D200924453469E685D
:101A4000DF688F42CFDC00D109E1002F00DAEEE041
:101A50005246534652691B699346924A934200D1BB
:101A600001E1524652882804594610439847029093
:101A700003910299039A0B001000134300D1D6E0A2
:101A800013000A00B61A9F41002806DB824800F0C6
:101A900077FA029E039F36184F4153469E60DF60DF
:101AA00000229A5E002A9EDB530099186069C900E3
:101AB000411800938B68C9689B46B94293DC01D1F9
:101AC000B34290D808239C46A44463462281A4468E
:101AD000040058460593AB46009B0500059805E0B9
:101AE00053009918C90061188D68C9689B18DB00FC
:101AF000E318B94206DC00D1C9E018000023C25E39
:101B0000002AEDDA53465D4664461A800580A388B4
:101B10001BB2002B00DA6BE72269EFF3108172B67B
:101B20001368002BFCD0BFF35F8F0123A5885B42B5
:101B3000A3802DB22369BFF35F8F00221A6081F367
:101B40001088002D00DA53E72300083322009A465C
:101B500067696B005B19DB00FB18996850468C467F
:101B60000824115FDE68002910DB009306E0B34211
:101B700059D00023E15E2000002906DB4C006418E8
:101B8000E4003C19E368B342F1DD009B05800020CE
:101B90001D5E1980002DDCDA1400A379002B00D122
:101BA0002AE70023A37108339C460823E75EA44478
:101BB0007B1C00D120E701204042C117A2466546A8
:101BC00000900191666902E00D007B1C1AD07B0039
:101BD000DB19DB00F1183A00F75E4B881BB2002BD3
:101BE000F2DA009B019C8B60CC60534608201B5EA0
:101BF0009342EAD053462F801B890B8053461A81AB
:101C00007B1CE4D15446244800F0BAF90823E55E71
:101C10008346002D00DBF8E607B0F0BCBB46B246B9
:101C2000A946A046F0BDA3686345A2D9ADE75346D7
:101C30001B8822692381EFF3108372B61168002993
:101C4000FCD0BFF35F8F514662880A8022696580AD
:101C5000BFF35F8F0021116083F31088C3E65E45F8
:101C600000D8F2E6BFE65B4658461B699847002855
:101C7000DDD05B461A685B6802920393F9E65F4524
:101C800000D8D4E6C8E7834666696A00D2E6B54262
:101C900000D832E736E7C046004005409872002081
:101CA0003C700540A9190020074810B50268EFF301
:101CB000108172B61368002BFCD0BFF35F8FFEF764
:101CC00043FD0020002110BD4C76002070B52E4C45
:101CD0002569002D04D00A212C48FFF733FE70BD82
:101CE0002B4E0321300000F041F9E660FFF764FC61
:101CF000284B03229C46D02322701B061B6801211F
:101D00006370254B6044A3600F2380002061022094
:101D1000638063694942A180198002311986473185
:101D20001D83585218315A5275325C399952183203
:101D300001319952183201319952183201319952B8
:101D4000083518329D520231183299521832013139
:101D50009952183201319952183201319952183280
:101D6000013199521832013199520C4B0C49DC6007
:101D700001303562FFF778FC01210320FFF762FC98
:101D8000084B1D60A7E7C0465C6E00204C76002023
:101D90000040054040000034FFFF10009872002012
:101DA000A91900203860054010B543890A149342F0
:101DB0001ADD53009B184269DB00D3180469EFF366
:101DC000108C72B62268002AFCD0BFF35F8F5A884D
:101DD000090494B2090C8A4208D00369BFF35F8FEB
:101DE00000221A608CF31088002010BD802212029D
:101DF00014435C80012302698371BFF35F8F00216C
:101E000011608CF31088044902788C469340C268B4
:101E1000012062441360E8E73C200000F0B5C646AC
:101E200004000D0000B5EFF305830E00002B0ED06B
:101E30004A4900204B6AAB4206D38A6A5B1BA24226
:101E400040415A1E9341184380BCB846F0BD00F093
:101E50009FF822002B00121A8B41002B00DA67E05A
:101E60003F480269EFF3108872B61368002BFCD06C
:101E7000BFF35F8F0223C75E43697A00D219D20095
:101E80009B1802699446002F4CDB1A884280BFF3EE
:101E90005F8F002261460A6088F310885A615A8871
:101EA000304901325204520C19619C60DD60111CF2
:101EB000002A4BD08AB259803904114302699446F2
:101EC000EFF3108872B662461268002AFBD0BFF3A7
:101ED0005F8F82881A8003698780BFF35F8F00223B
:101EE0001A6088F31088204F0378BC4601329A406C
:101EF000C36863441A6040BF20BF184B5A6AB2429D
:101F000026D220BFFFF750FF144A0020536AB34285
:101F100000D299E7926A5B1B591E8B41A242404155
:101F2000184391E7BFF35F8F0023136088F3108895
:101F30000A4A0020536AB34200D285E7926A5B1BCB
:101F4000A24240415A1E934118437DE70121B1E767
:101F50009B6AA342D6D2B242D4D1D2E70040054018
:101F60005C6E0020A91C00203C20000010B5024A35
:101F70000248FFF7FFFA10BD046A002060720020DB
:101F80000300416A0A00986A596A8A42FAD1704786
:101F9000034B596A0A00986A596A9142FAD170470C
:101FA0000040054070B504000D00174A536A19003F
:101FB000966A536A8B42FAD13000190024184D41B9
:101FC000AB4216D813D0104B2A005B6A9D4203D94E
:101FD0000D494B6A9342FCD3934207D10A4A02E06F
:101FE000516A994202D1916AA142F9D370BDA642C9
:101FF000E9D9054B5B6A1C005A1CEFD00122012471
:102000006442E5175242E3E700400540F8B504009A
:1020100021481E0017000D0000F03AFA01003800B8
:1020200000F036FA069B36041B031E432368002B80
:1020300020DB1A4B1A49E3185A1E93418022920161
:1020400094465B421B0B174A1B0363441360164AFA
:1020500013601F000A689743FBD1144B2560E218F8
:102060002123A06013602368002BFCDA0823E660BC
:102070001360F8BD3F2322681340AB42D9D1A36857
:102080001B051B0D8342D4D1EE22E368D20213401C
:10209000B342CED1EDE7C046001BB7000040FDBF04
:1020A00008C0004000E0004000F0004004300000A4
:1020B0008023024A9B000B43D36270470080054097
:1020C000AA23064A1B0113602F230549D360054B41
:1020D00019605368002BFCDA7047C046004002408C
:1020E00000B0FA000060024010B50822EE2102485C
:1020F00000F070FD10BDC04640750020002310B5F3
:102100000100988A1B8B984710BDC046162310B556
:102110000100188802331B88984710BDF8B5474660
:10212000CE4680B50F1E18D0142399460433040000
:102130000025012698464B461888434621681B888F
:10214000984701C4431E984101350640AF42F2D181
:102150003000C0BCB946B046F8BD0126F8E7C0461D
:10216000002370B504000D00988A03491B8B984723
:10217000290003002000984755420000F8B50400EC
:1021800006200D00FFF7F0F9002844D0374B3849FE
:10219000E3185A1E93418022120494465B429B0D21
:1021A000344A9B0563441360334A136018000A687D
:1021B0009043FBD12D4B314AE31859424B418021CA
:1021C0005B00490006209952FFF7CEF92900C000B4
:1021D00000F05EF90130C3091ED14027012262627E
:1021E000A362266BF30722D4E36A254B0620E51889
:1021F00000232B602663FFF7B7F93900800000F059
:1022000047F97023E26A5A400E3313402B601D4B8E
:1022100023630323A364F8BD1B4A93421ED9002302
:102220001A4A1B4F6262A362266BF307DCD5194B77
:10223000144AE3181A60656AA36A0620AD01ED1816
:10224000FFF792F9144900F023F9AD0201002800CC
:1022500000F01EF90021FFF7A5FEC5E74006800E3D
:102260009F011A003F180300B9E7C0460080FCBF79
:1022700008C0004000E0004000F000405076002020
:102280002C10000001030000FEFF0000FFFF000013
:10229000C0FF3F00303000004E0E00007047C046C7
:1022A00010B50148FEF756F9286A002070B5074DB1
:1022B000074EB54209D20024013E761BB60808CD70
:1022C000984723000134B342F9D170BDC86E002095
:1022D000006F0020054B064A06491A60064A074B64
:1022E0001A6010000B689843FBD1704700E0004073
:1022F000BFCDFBFE08C00040FE7F3C0000F0004068
:10230000044BDB6C002B03D18022034BD2021A60FA
:102310007047C046000011504C201150044A054B34
:102320001A60054A1368DB018033FBD17047C04651
:10233000FFFFFF0100F0004008C000404022034BB7
:102340009A675A671A67DA667047C04600F001401C
:1023500010B5FFF73DF910BD002310B5294C82B030
:10236000A367FFF7ADFE0122274B1A60636C012BB8
:10237000FCD10322254B1A60224A936B012BFCD11E
:10238000013300930121224A22480433FFF73EFE25
:10239000052301210093204A2048FFF737FE002241
:1023A000022104201E4BFFF76BF8002201210520BB
:1023B0001C4BFFF765F80022002107201A4BFFF79E
:1023C0005FF8002200210820174BFFF759F88023FF
:1023D000DB000093002200210920134BFEF7D6FFFB
:1023E0000022104B00210620FFF74AF80420FFF7D7
:1023F000BBF80E4900F04CF801000020FFF758FE32
:1024000002B010BD008000403CB0004030B0004041
:10241000002F685900800240008C864700C00240AF
:10242000001BB70040597307006CDC0240420F00EC
:1024300001480421014B1847806E00201D21002017
:10244000124A936F9B0815D29066D166002905D079
:10245000FFE7FFE7FFE7516F106F704704B580217A
:102460000906C2175140002800D0C84304F05CF9A7
:10247000002104BDF0B5146E556E576F166FFFF74F
:10248000E3FF1466556657671667F0BD000000D07D
:10249000114A936F9B0813D210665166002905D02C
:1024A000FFE7FFE7FFE7516F106F704704B50028A3
:1024B00001D00020C04304F037F9002104BDC0461C
:1024C000F0B5146E556E576F166FFFF7E5FF146683
:1024D000556657671667F0BD000000D094464A4A1B
:1024E000926F9208624601D228E0C046F0B5464E8F
:1024F000346E756E776F366F00F020F89446424A5E
:1025000014665566576716676246F0BD94463E4AA4
:10251000926F9208624601D254E0C046F0B53A4E3E
:10252000346E756E776F366F00F04CF89446364A0D
:1025300014665566576716676246F0BD002B24DBAC
:1025400011D000293EDA00B5C943404200D1013123
:1025500000F038F8C943404200D10131DB43524218
:1025600000D1013300BD002AEBD1002801D10029A0
:1025700005D00020C90FC90701D1C043410800B5EB
:1025800004F0D2F80022002300BD00B500290ADBC8
:10259000DB43524200D1013300F014F8C9434042FA
:1025A00000D1013100BDC943404200D10131DB43BC
:1025B000524200D1013300F005F8DB43524200D112
:1025C000013300BD002923D1002B18D1002A0CD0E3
:1025D000BC460D4F38667A6600210023FFE7FFE70F
:1025E000FFE77A6F386F67467047002801D00748C9
:1025F000010000B504F098F80022002300BD02009D
:102600000B00002000217047000000D0FFFFFFFFFB
:10261000002B00D0BFE0130C28D1002AE7D080B4F3
:10262000114F39667A66FFE7FFE730B4040C7B6F21
:10263000396F1B0423433B667A66FFE7FFE7FFE73A
:10264000C04684B27B6F3D6F1B0423433B667A66B2
:10265000FFE7FFE7C04600232C042D0C7A6F386F8C
:1026600000196941B0BC7047000000D0F0B5944635
:102670000025140E01D112020835140F01D11201E8
:102680000435940F01D192000235D40F01D15200CC
:102690000135D40B0134254F7C66254C3C660E0C6D
:1026A00093B2FFE7FFE7FFE73C6F6643360C770323
:1026B000BE467343DF0B5B04C01AB941130C73436E
:1026C000DB18C91ACE086643360CB64493B273437E
:1026D0001F0F1B01C01AB941130C73431F0B1B05BD
:1026E000C01AB941860D8F023E436643360C092D50
:1026F00024DB520A7243801A7703460A6643360C7B
:1027000016235B1BDE40DF40BF1964466643821B15
:102710007046043506330100D940A840C01900D3E3
:102720000131A24206D20023F0BD0000000000D01B
:10273000FFFFFFFF121B0130F3D3F1E709277F1BD7
:10274000FE406446A2B27243801A00D20139220CC4
:102750007243130C1204821A99410B00704604351F
:1027600013370100F940A840801900D30131002B34
:1027700002D1A2420AD2F0BD013000D30131121BB6
:10278000FAD2013BF8D1A24200D2F0BD013000D311
:102790000131121BF7E7F0B51C0C00D080E00CB43F
:1027A00000251C0A04D11B02160E33431202083501
:1027B0001C0B04D11B01160F3343120104359C0B73
:1027C00004D19B00960F334392000235DC0B02D1FB
:1027D00092185B4101351C00971864410134464F43
:1027E0007C66464C3C660E0CFFE7FFE7FFE7C04601
:1027F0003C6F6643360C7703BE4697B27743C01BE7
:1028000000D20139C01B00D201399FB27743C91BE6
:10281000C91B170C77437E04FF0B801BB941CE0800
:102820006643360C0C2D33DBB644120B1F053A43BE
:102830001B0B97B27743C01B00D201399FB277437D
:10284000C91B170C77433E043F0C801BB941860D12
:102850008F023E43664329277F1BFE400C3D77468F
:10286000AF40BF1930BCA2B2ABB272437343801AFF
:102870009941220C7243130C1204801A99410200F0
:102880000B000137001BA941F9D2781E0021F0BDD1
:102890000C277F1BFE4077467F0BAF40FF19E0E718
:1028A00000245D1C07D0144F7D663966FFE7FFE703
:1028B000FFE7FFE73C6F95B29EB265436643401B5E
:1028C000B141150C1E0C6543664336042F0C3E4384
:1028D0002D04401BB141994204D202000B0020009C
:1028E0000021F0BD01D19042F7D3801A9941013403
:1028F0009942F2D3F6E70000000000D0FFFFFFFF8F
:1029000010B50148FDF726FE346A0020132370B588
:102910001D78012D19D014DD1D48FFF7F7FB0600C7
:102920001C48FFF7F3FB1C4C80223100200000F014
:1029300057F9022D06D01948FFF7E0FB184B186035
:1029400070BD154C174BA364F5E7174B124C236071
:102950006360A360E36023616361A361E361236259
:102960006362A362E36223636363A363E363236439
:102970006364A364E36423656365A365E365236619
:102980006366A366E36623676367A367E367D9E7C4
:102990005344000053460000587100204C3300009F
:1029A00048750020AD2900200129002007B56046A8
:1029B00001880A0A0230DF2AFAD1C9B2820804D398
:1029C000028840880004104300E00068014A50502B
:1029D000039007BD587100204840414048400E4BCD
:1029E0005B6818470C4B1B6818470C4A936F9B0891
:1029F00002D2094BDB681847F0B5146E556E576F5D
:102A0000166FFFF7F6FF054A146655665767166797
:102A1000F0BD014B9B6818474C750020000000D0AA
:102A200007B548404140484001E0C04607B5420074
:102A3000120E03D0FF2A03D1420218D8C00DC005E0
:102A40004A00120E03D0FF2A03D14A020FD8C90D43
:102A5000C9050122414005D4414001D5814207BD4D
:102A6000884207BD0143491801D0C043001807BD83
:102A700000B5FFF7DBFF804100BDC04600B5FFF7A2
:102A8000D5FF01D9002000BD012000BD00B5FFF732
:102A9000C7FF804100BD01231B064200D21804D8A5
:102AA0004A00D21801D8002070470120704700006A
:102AB000C10FC90700D54042002817D0F44603B41F
:102AC0000B4B1B68984706BC81409E3840428031C2
:102AD00007D20B0607D04900490AC0051043084336
:102AE00060470130F8E7490A8902F5E770470000BE
:102AF0004875002041000A0E80231B067E2A0BDD4C
:102B00009E3A0BDAC1174002400818435242D040A7
:102B1000490001314843704700207047C00FC0187A
:102B200001387047C0420DD300B540004008002175
:102B300000F00EF8002801D4404200BD80200006BD
:102B400000BD0000014BDB69184700004C750020F8
:102B5000014B5B6A184700004C75002010B5014816
:102B6000FDF7F8FCD4670020132310B510481C783B
:102B7000FFF7CCFA0100012C0AD003DD80220D48BA
:102B800000F02EF80C48FFF7B9FA0C4B186010BD96
:102B9000084C5422200000F023F82200084980321B
:102BA0002368002B00D1216004349442F8D1E9E776
:102BB000534600004C7500204C330000487500203F
:102BC0005D2B002001480421014B1847906E002026
:102BD0001D210020014B1B6818470000906E00204B
:102BE000014B5B6818470000906E002010B500286C
:102BF00000D110BD00F036F9FBE7C04610B5094A18
:102C00000300146884B0002C08D00122009106480B
:102C1000524203A9A047012004B010BD00F06CF996
:102C20000020F9E794720020ED2B00200021002005
:102C300010B5FFF795FAC04610B5FFF7F7FFC0468D
:102C400070B5FFF733FB074D074EB54209D200249C
:102C5000013E761BB60808CD984723000134B342E5
:102C6000F9D170BD006F0020086F0020030010B57F
:102C7000080011001B68984710BDC046F0B5C64655
:102C800000B5437D07000C001600002B46D0002A3B
:102C900017DD0B780A2B24D000239846012E13D081
:102CA00001252900635C01350A2B26D0B542F8D1F5
:102CB000464509DCA419013C23780D3B5A42534197
:102CC0003B7580BCB846F0BD4346E018A419F11A24
:102CD000013C3B68984723780D3B5A4253413B7572
:102CE000EFE7037D002BD7D102210F483B689847BF
:102CF000012EDFD001239846D2E7631E5B5C0D2BCB
:102D0000D4D0884504DA4346C91AE0183B6898478E
:102D1000022105483B68A8469847C7E703681100A9
:102D200020009847CDE7C046286B0020F0B5454607
:102D3000DE464E465746E0B583B091461C008046BD
:102D40000D00FFF725F90023304A12184B41002BE4
:102D500002DA01222E4B52422E4908008A46FDF724
:102D600039FA07006B1C03D1404603F0DFFC050075
:102D7000002C27D0284E294B1C68002C18D04B461D
:102D8000002B21D1264B994602E02469002C0FD05C
:102D90002368002BF9D04B461B68002B01D09C42C6
:102DA000F3D120002A004146B0472469002CEFD11E
:102DB000002F26D1280003B0F0BCBB46B246A9467E
:102DC000A046F0BD174ED6E7154B99460A239B4601
:102DD00002E02469002CEBD02368002BF9D04B468D
:102DE0001B68002B01D0A342F3D12A0041462000EA
:102DF000B0476B465A462000DA71D91D0122B04710
:102E0000E7E75046FDF736FAD4E7C04640420F00E8
:102E1000FFFFFF7FC06E00207D2C00208C72002001
:102E2000907200206D2C00200A4A1368002B05D1F7
:102E30000CE01A001B691032002B07D08342F8D136
:102E4000002902D118691060196170470029FCD06F
:102E50001060FAE78C72002010B500F03BF90120F9
:102E600010BDC046F0B5CE46474680B583B06B4630
:102E70000600DD1D2870FFF78BF80023194A121891
:102E80004B41002B02DA0122174B5242174908002E
:102E90008846FDF79FF9164B81461C68002C14D01C
:102EA000144F02E02469002C0FD02368002BF9D0C6
:102EB0003B68002B01D09C42F4D120000122290064
:102EC000FFF7DCFE2469002CEFD14B46002B05D127
:102ED000300003B0C0BCB946B046F0BD4046FDF777
:102EE000C9F9F5E740420F00FFFFFF7FC06E0020E9
:102EF0008C7200209072002070B5040003F016FC64
:102F000001230100050001222000FFF70FFF084BFD
:102F10001C68002C06D06368002B05D098472469F4
:102F2000002CF8D1280070BD2469002CF3D1F9E7FA
:102F30008C720020F0B5002915DD0E4B0D271A68A4
:102F40000D4B0E4CD3185D426B41451820215B00A0
:102F50001E5F0478A64207D093691942FCD1013064
:102F60001460A842F5D1F0BD93691942FCD11760F5
:102F7000F2E7C046547600200080FCBF5076002067
:102F8000204B70B504000D1E1E682ADD00201021A4
:102F90001D4B013C1A689369194214D101309369A1
:102FA0001942FCD1136823548542F4D1002E08D075
:102FB00050239363516B183B0B4014498C46624479
:102FC0001360280070BD002E08D050239363516B0E
:102FD000183B0B400D498C46624413600028F1D128
:102FE0000CE0002E0AD05022074B1B689A63596BE5
:102FF000183A0A4005498C4663441A60032040424F
:10300000E0E7C046587200205476002034100000DB
:10301000064B10B51B68002B06D00021044A12682D
:103020009163044A1068984710BDC046587200204A
:10303000547600205C720020082202498B691A42F3
:10304000FCD17047004003401C4BF0B51A68C646DF
:1030500098461B4B0E00D31859424B41194F14335D
:103060001C00050000B53B68002807D0002B11D0DC
:10307000154B3D601E6080BCB846F0BD002BF7D0FC
:10308000906300212000FEF7DDFA20000F49FEF7D3
:1030900015FBEDE720000D49FEF7E6FA01212000BF
:1030A000FEF7D0FA434650221B689A63596B183AD0
:1030B0000A4007498C4663441A60D9E754760020D9
:1030C0000080FCBF587200205C720020113000208C
:1030D000341000000D4B10B51B780D4B0D4C1B78B8
:1030E0000D4B02211B780D4B00202360FEF77EFA6A
:1030F00002210120FEF77AFAE12120684902FFF758
:103100003DF801210648FFF78FFE10BD0C6E002030
:10311000086E002054760020046E0020004003401A
:10312000A06E0020002303600371704770B505682E
:10313000040006790B212800FFF7AAF9002902D024
:1031400001237340237101353000256070BDC046F6
:103150000300613B192B06D90300413B192B00D911
:1031600070472030FCE72038FAE7C04610B504006D
:103170002720FFF777FE2300203B5E2B1BD95C2026
:103180000D2C32D00A2C1DD0FFF76CFE7820FFF7F3
:1031900069FE2006030F1800092B19D93730FFF7F5
:1031A00061FE0F20030023401800092B19DD373082
:1031B000FFF758FE02E02000FFF754FE2720FFF73C
:1031C00051FE10BDFFF74EFE6E20FFF74BFEF5E7F8
:1031D0003030FFF747FE0F20030023401800092B73
:1031E000E5DC3030FFF73EFEE8E7FFF73BFE7220FC
:1031F000FFF738FEE2E7C04670B50400007800280B
:1032000027D00F261BE00D2833D00A2822D05C20BF
:10321000FFF728FE7820FFF725FE257828099F2D47
:1032200023D93730FFF71EFE35402800092D18D965
:103230003730FFF717FE60780134002809D003000B
:10324000203B5E2BDFD8FFF70DFE607801340028AD
:10325000F5D170BD5230FFF705FE6E20FFF702FE7C
:10326000E9E73030FFF7FEFDEFE73030FFF7FAFD1A
:10327000DAE74F30FFF7F6FD7220FFF7F3FDDAE7EC
:1032800070B5134D0400AB68002B17D0114E300001
:10329000FFF7B2FF301DFFF7AFFFA868002801D08D
:1032A000FFF7AAFFEB68002B08D030001030FFF7C3
:1032B000A3FFE868002801D0FFF79EFF002C05D08F
:1032C0000448FFF799FF2000FFF796FF70BDC04646
:1032D000106F0020486B0020F0B5C64606000F2393
:1032E00000B500780F003400984600281DD129E071
:1032F0000D2839D00A2828D05C20FFF7B3FD7820AC
:10330000FFF7B0FD257828099F2D29D93730FFF721
:10331000A9FD43461D402800092D1DD93730FFF770
:10332000A1FD6078013400280CD0A31BBB4209D258
:103330000300203B5E2BDBD8FFF794FD607801345F
:103340000028F2D180BCB846F0BD5230FFF78AFDAC
:103350006E20FFF787FDE4E73030FFF783FDEDE7F0
:103360003030FFF77FFDD4E74F30FFF77BFD722051
:10337000FFF778FDD5E7C04670B50D00002801D0F5
:10338000FFF73AFF3A20FFF76DFD002D2BDB092DEB
:103390002FD90124A3001C19640021002800FFF785
:1033A00077F80928F6D821002800FFF771F80A21DC
:1033B000FFF76EF83031C8B2FFF754FD20000A2144
:1033C000FFF766F826000400092EECD83A20FFF734
:1033D00049FD0A4B5868002801D0FFF70DFF3A203D
:1033E000FFF740FD70BD2D206D42FFF73BFD092D1D
:1033F000CFD83035E8B2FFF735FDE7E7106F002092
:10340000F8B5244E05003068002801D0FFF7F4FE1F
:103410003A20FFF727FD002D30DB092D34D9012498
:10342000A3001C19640021002800FFF731F80928C7
:10343000F6D821002800FFF72BF80A21FFF728F81B
:103440003031C8B2FFF70EFD20000A21FFF720F847
:1034500027000400092FECD83A20FFF703FD70681D
:10346000002801D0FFF7C8FE3A20FFF7FBFC0A480E
:10347000FFF7C2FE3A20FFF7F5FCF8BD2D206D42A4
:10348000FFF7F0FC092DCAD83035E8B2FFF7EAFCA7
:10349000E2E7C046106F0020646B0020F8B53F4E95
:1034A000CE4647468146300080B524308846150018
:1034B000FFF7A2FE4B46002B54D02720FFF7D2FC8B
:1034C0004846FFF799FE2720FFF7CCFC300030304C
:1034D000FFF792FE4346002B3FD02720FFF7C2FCA8
:1034E0004046FFF789FE2720FFF7BCFC3000403044
:1034F000FFF782FE0124092D49D9A3001C1964009D
:1035000021002800FEF7C4FF0928F6D82100280072
:10351000FEF7BEFF0A21FEF7BBFF3031C8B2FFF74E
:10352000A1FC20000A21FEF7B3FF27000400092FA9
:10353000ECD830002430FFF75FFE4B46585DFFF7B4
:1035400015FE30003030FFF757FE4346585DFFF759
:103550000DFEC0BCB946B046F8BD30003830FFF7AC
:103560004BFEF6E730003830FFF746FE30003030D3
:10357000FFF742FE4346002BEFD02720FFF772FCF7
:103580004046FFF739FE2720FFF76CFCE1E72800F3
:103590003030C0B2FFF766FCCBE7C046486B002076
:1035A000F8B5414ECE4647468146300080B52430BE
:1035B0001D0088461400FFF71FFE4B46002B56D017
:1035C0002720FFF74FFC21004846FFF785FE272004
:1035D000FFF748FC30003030FFF70EFE4346002B6B
:1035E00040D02720FFF73EFC21004046FFF774FE45
:1035F0002720FFF737FC30004030FFF7FDFD0124A6
:10360000092D4AD9A3001C19640021002800FEF7E7
:103610003FFF0928F6D821002800FEF739FF0A21CC
:10362000FEF736FF3031C8B2FFF71CFC20000A213C
:10363000FEF72EFF27000400092FECD830002430BD
:10364000FFF7DAFD4B46585DFFF790FD3000303054
:10365000FFF7D2FD4346585DFFF788FDC0BCB94671
:10366000B046F8BD30003830FFF7C6FDF6E7300051
:103670003830FFF7C1FD30003030FFF7BDFD434665
:10368000002BEFD02720FFF7EDFB40462100FFF78E
:1036900023FE2720FFF7E6FBE0E728003030C0B22A
:1036A000FFF7E0FBCAE7C046486B002010B50028D2
:1036B00001D0FFF7A1FD10BD10B5002801D0FFF724
:1036C0000BFE10BD70B505000C00912900D16CE017
:1036D0000600CB0647D48B0620D5092800D86EE01B
:1036E0000124A3001C19640021002800FEF7D0FE6D
:1036F0000928F6D821002800FEF7CAFE0A21FEF7A5
:10370000C7FE3031C8B2FFF7ADFB20000A21FEF73B
:10371000BFFE26000400092EECD870BD3020FFF754
:10372000A1FB7820FFF79EFB0F2323405B001A1CB0
:10373000082B3DD8D2B2002BEFD0013AD4B20F26DD
:10374000A40005E03030FFF78DFB043C231DE4D0DE
:1037500028003300E04003401800092BF2D937302D
:10376000FFF780FBF1E7002824DB092E2CD9012488
:10377000A3001C19640021003000FEF789FE09280F
:10378000F6D821003000FEF783FE0A21FEF780FE06
:103790003031C8B2FFF766FB20000A21FEF778FE41
:1037A00025000400092DECD8B7E7FFF7DFFCB4E7EC
:1037B0000822BFE72D20FFF755FB6E42D5E73035D5
:1037C000E8B2FFF74FFBA8E73036F0B2FFF74AFB4D
:1037D000A3E7C04670B505000C008B061FD509286D
:1037E00047D90124A3001C19640021002800FEF71A
:1037F0004FFE0928F6D821002800FEF749FE0A21CD
:10380000FEF746FE3031C8B2FFF72CFB20000A213C
:10381000FEF73EFE26000400092EECD870BD3020D5
:10382000FFF720FB7820FFF71DFB0F2323405B00F1
:103830001A1C082B18D8D2B2002BEFD0013AD4B200
:103840000F26A40005E03030FFF70CFB043C231DDD
:10385000E4D028003300E04003401800092BF2D9DF
:103860003730FFF7FFFAF1E70822D2B2002BE5D19B
:10387000D4E73035E8B2FFF7F5FACFE770B5051EAB
:103880001FDB092D23D90124A3001C19640021008A
:103890002800FEF7FDFD0928F6D821002800FEF7D4
:1038A000F7FD0A21FEF7F4FD3031C8B2FFF7DAFA6E
:1038B00020000A21FEF7ECFD26000400092EECD8BA
:1038C00070BD2D206D42FFF7CDFA092DDBD83035C4
:1038D000E8B2FFF7C7FAF3E770B5050009281DD96C
:1038E0000124A3001C19640021002800FEF7D0FD6C
:1038F0000928F6D821002800FEF7CAFD0A21FEF7A4
:10390000C7FD3031C8B2FFF7ADFA20000A21FEF73B
:10391000BFFD26000400092EECD870BD3035E8B29A
:10392000FFF7A0FAF9E7C04670B50B1C060008299E
:1039300000D90823DBB2002917D0013BDCB20F25E8
:10394000A40005E03030043CFFF78CFA231D0CD0B6
:1039500030002B00E04003401800092BF2D937302B
:10396000043CFFF77FFA231DF2D170BDF8B5802427
:1039700006000F002025240606E03120FFF772FA2A
:10398000013D6408002D0AD0344209D03C42F4D1F4
:103990003020013DFFF766FA6408002DF4D1F8BD30
:1039A0005820FFF75FFAEBE7F0B5CE46474680B503
:1039B000002185B0041CFFF75BF8002826D1B3492D
:1039C000201CFFF755F8002818D1211C201CFFF7F8
:1039D00062F8002800D04FE365006D08AC49281C50
:1039E000FFF759F800282BD1A949281CFFF746F802
:1039F000002825D1A748FFF7FFFB02E0A648FFF704
:103A0000FBFB05B0C0BCB946B046F0BDA349201CC5
:103A1000FFF73CF80028F1D165006D089C49281C8F
:103A2000FFF739F8002800D048E19949281CFFF732
:103A300025F8002800D041E19948FFF7DDFBE0E7D9
:103A4000002110226846FFF7C5F8FE21201C8905D9
:103A5000E846FFF70DF8002800D044E19149201C0A
:103A6000FFF714F8002800D1DAE28F49201CFFF795
:103A70000DF80025002811D08C49201CFEF7B5FF59
:103A80008949041C0A35FFF701F80028F4D185495B
:103A9000201CFEF7FBFF002800D1F1E2FE27BF0546
:103AA0008349381CFEF7B5FF011C071C201CFEF7DC
:103AB0009CFF7C490135061CFEF7E8FF0028EFD18A
:103AC0000027311C301CFEF78DFF061CFFF712F893
:103AD000431CDC0FE4180123641023420AD0034284
:103AE00008D0FEF7E5FF011C301CFEF7CFFF434274
:103AF0005841241A6F4B3C199C4200DC81E12B0099
:103B00000B3300D2ADE26E1C6B1C00D1DDE2AB1CAE
:103B100000D1EAE2EB1C00D1EDE2EF43664C20005D
:103B20000A21FEF78DFC002304009946FE1E032F98
:103B300000D1B8E10A212000FEF782FC002900D064
:103B400035E220000A31FEF77BFC3E1F0400042F03
:103B500000D1A8E10A21FEF773FC002900D026E27B
:103B600020000A31FEF76CFC7E1F0400052F00D1F7
:103B700099E10A21FEF764FC002900D017E2200039
:103B80000A31FEF75DFCBE1F0400062F00D18AE15A
:103B90000A21FEF755FC002900D008E220000A3176
:103BA000FEF74EFCFE1F0400072F00D17BE10A2127
:103BB000FEF746FC002900D064E220000A31FEF73F
:103BC0003FFC013E0400082F00D16CE10A21FEF702
:103BD00037FC002900D055E220000A31FEF730FC06
:103BE0000400092F00D15EE10126431C00D149E207
:103BF000302342460026012413706B465D1EB442FA
:103C000000D1F3E0285D013CFFF72CF9002CF6D140
:103C10004B46002B00D1F4E66520FFF723F94B4615
:103C2000002B00DA21E22B20FFF71CF90A2148467D
:103C3000FEF706FC43463031197048460A21FEF76C
:103C4000FFFB0A210400FEF7FBFB43463031200056
:103C500059700A21FEF7F4FB0224051E0CD00A213C
:103C6000FEF7EEFB43463031280099700A21FEF73B
:103C7000E7FB0134051E61D1013C44442078FFF785
:103C8000F1F82300013C9845F8D1BAE6ACC52737D6
:103C9000FFFF7F7FAC6B0020AC6A0020ACC527B76C
:103CA000986B00208096184BCA1B0E5AF9021550CB
:103CB000000020417F96980010270000002110226C
:103CC0006846FEF787FF2D20FFF7CCF880231B0600
:103CD0009C46FE2164448905201CE846FEF7C8FE88
:103CE000002800D1BAE6CA49201CFEF7C1FE002513
:103CF000002811D0C749201CFEF78BFEC449041CC4
:103D00000A3DFEF7B5FE0028F4D1C349201CFEF79A
:103D1000AFFE002800D1B3E1FE27BF05BF49381C24
:103D2000FEF777FE211C071CFEF773FEBA49013D22
:103D3000061CFEF79DFE0028F0D1C1E60A21FEF721
:103D40007FFB434630312800D9700A21FEF778FB0B
:103D50000134051E90D00A21FEF772FB4346303134
:103D6000280019710A21FEF76BFB0134051E00D1F2
:103D700082E70A21FEF764FB43463031280059717F
:103D80000A21FEF75DFB0134051E00D174E70A210C
:103D9000FEF756FB43463031280099710A21FEF7A1
:103DA0004FFB0134051E00D166E70A21FEF748FBF0
:103DB000434630312800D9710A21FEF741FB013416
:103DC000051E00D158E70A21FEF73AFB4346303181
:103DD000197228000A21FEF733FB0134002800D1B4
:103DE0004AE7434630305872013445E72E20FFF74A
:103DF00039F8285D013CFFF735F8002C00D0FEE6CD
:103E000006E72B000A330A2B27D9AB1D0A21200015
:103E10009946FEF715FB002900D04CE120000A313D
:103E2000FEF70EFB0A210400FEF70AFB0526002917
:103E300000D0BCE00A212000FEF702FB0A210400AA
:103E4000FEF7FEFA002900D053E120000A31FEF708
:103E5000F7FA0627040003266CE66F42002D00D116
:103E60003AE10A212000FEF7EBFA002900D04BE1ED
:103E700020000A31FEF7E4FAEB43040099466B1C7C
:103E800011D00A21FEF7DCFA002900D08CE02000D6
:103E90000A31FEF7D5FA02235B425A1B0400914611
:103EA000AB4200D07AE0002C00D1A1E60026200031
:103EB0000A21FEF7C5FA43463031200019700A2165
:103EC000FEF7BEFA041E00D119E120000A21FEF718
:103ED000B7FA43463031200059700A21FEF7B0FA94
:103EE000041E6DD020000A21FEF7AAFA43463031A5
:103EF000200099700A21FEF7A3FA041E65D00A215A
:103F0000FEF79EFA434630312000D9700A21FEF7B1
:103F100097FA041E5ED00A21FEF792FA434630312A
:103F2000200019710A21FEF78BFA041E57D00A21CE
:103F3000FEF786FA43463031200059710A21FEF718
:103F40007FFA041E50D00A21FEF77AFA4346303138
:103F5000200099710A21FEF773FA041E49D00A2144
:103F6000FEF76EFA434630312000D9710A21FEF780
:103F700067FA041E42D00A21FEF762FA4346303146
:103F8000093419722F23122C3DD9424653720A2E3E
:103F900000D098E030230B2493722EE60A21FEF71E
:103FA0004FFA002900D1BAE500234E469946002C6D
:103FB00000D07CE7302342461370302342465370D2
:103FC000012E6EDD302342469370022E6BDD3023CE
:103FD0004246D370032E68DD302342461371042E0F
:103FE00065DD302342465371052E62DD30234246A3
:103FF0009371062E61DD30234246D371072E5EDDBC
:10400000302342461372082E5BDD3023BDE7C046E5
:104010006F12833AF90215500024744900002041C0
:10402000201CFEF767FD0700FEF742FD011C201C67
:10403000FEF7D5FC384C0025061CA74200DD40E504
:10404000FE208005BB00DF193449FEF7E2FC7F004B
:10405000013DA742F6DD011C301CFEF7DAFC061C10
:104060002FE5EB1D99462E4CE4E62D20FEF7FAFED7
:104070004B465B429946D9E52A48FFF7BDF8C0E4B4
:10408000261C1DE520000A21FEF7DAF943463031EF
:10409000200019700A21FEF7D3F9041E00D014E79E
:1040A0008BE70224A9E50324A7E50424A5E505245C
:1040B000A3E50624A1E5062679E707249DE5082463
:1040C0009BE5092499E50A2497E54246164B174CCF
:1040D00013800023994605E7002C19D1302342466E
:1040E00000261370B146013487E500230C4C994635
:1040F000DCE604265BE700230C4C9946D6E6002E4E
:1041000000D05AE7012478E500233E0099464EE7A7
:10411000002300269946CAE63F420F0000002041D6
:10412000A0860100946B00203030000010270000B2
:10413000F8B52C4D6B6A002B0AD0EB690133EB61AB
:10414000002200230A202A626B62FEF78BFEF8BD74
:104150002B6A002B03D0AB690133AB61F0E7286811
:104160002E69002801D0FFF747F83A20FEF77AFEC3
:10417000002E2DDB092E30D90124A3001C19640068
:1041800021003000FEF784F90928F6D8210030001C
:10419000FEF77EF90A21FEF77BF93031C8B2FEF74F
:1041A00061FE20000A21FEF773F927000400092FA1
:1041B000ECD83A20FEF756FE6868002801D0FFF7D9
:1041C0001BF83A20FEF74EFE0748FFF715F8B7E751
:1041D0002D20FEF747FE7642CCE73036F0B2FEF7F0
:1041E00041FEE6E7106F0020B86B0020F0B5CE4628
:1041F000174F150099463A6A7B6A04000E0000B515
:104200001A4306D10B006B40184206D180BCB94658
:10421000F0BD01210F4802F0C3FA0698FFF7F0F84D
:104220000D48FEF7E9FF31002000FFF79FFB0B4828
:104230003030FEF7E1FF29002000FFF797FB4846EA
:10424000FFF71EF801210348396202F0A9FAC046BF
:10425000106F0020386F00206C6B0020486B00202E
:10426000F0B5CE4600B517006A46164E127E0C0019
:104270009146316A726A0500114304D1A04206D109
:1042800080BCB946F0BD01210F4802F089FA180040
:10429000FFF7B6F80D48FEF7AFFF49462800FFF7D5
:1042A00011FA0B483030FEF7A7FF49462000FFF710
:1042B00009FA3800FEF7E4FF01210348316202F0F9
:1042C0006FFAC046106F0020386F00206C6B002022
:1042D000486B0020F0B5CE4600B517006A46164E72
:1042E000127E0C009146316A726A0500114304D1B6
:1042F000A04206D180BCB946F0BD01210F4802F0B2
:104300004FFA1800FFF77CF80D48FEF775FF494695
:104310002800FFF75FFA0B483030FEF76DFF494683
:104320002000FFF757FA3800FEF7AAFF01210348E3
:10433000316202F035FAC046106F0020386F00205D
:104340006C6B0020486B0020F0B54F46D6464646C1
:10435000C0B50D0008A9040001C9374F9A460B7873
:10436000396A99467B6A1600194342D1AC422BD078
:1043700031DA53072AD5FFF743F8304B30489846D7
:10438000FEF73AFF49462800FFF79CF9B30734D5FA
:1043900040467830FEF730FF0123334072072CD4BB
:1043A000284D002B2FD1082E02D12748FEF724FFDD
:1043B00049462000FFF786F95046FEF761FF0121CC
:1043C0002248396202F0ECF9D30721D5E0BCBA46A5
:1043D000B146A846F0BD9307F8D5FFF711F8174B83
:1043E00017489846FEF708FF49462800FFF76AF984
:1043F000CEE70121154802F0D3F91548114DFEF71B
:10440000FBFEF607D4D528002430FEF7F5FECFE7F3
:10441000FEF7F6FF094B0A489846FEF7EDFE4946BF
:104420002000FFF74FF9B307B2D47307BBD5084894
:10443000FEF7E2FEBCE7C046106F0020486B00208C
:104440006C6B0020C86B0020FC6B0020386F0020D4
:10445000D86B0020F0B54F46D6464646C0B50D0095
:1044600008A9040001C9374F9A460B78396A994662
:104470007B6A1600194342D1AC422BD031D253078C
:104480002AD5FEF7BDFF304B30489846FEF7B4FE04
:1044900049462800FFF79EF9B30734D540467830E7
:1044A000FEF7AAFE0123334072072CD4284D002BBF
:1044B0002FD1082E02D12748FEF79EFE4946200044
:1044C000FFF788F95046FEF7DBFE012122483962EA
:1044D00002F066F9D30721D5E0BCBA46B146A8463A
:1044E000F0BD9307F8D5FEF78BFF174B174898469A
:1044F000FEF782FE49462800FFF76CF9CEE701215E
:10450000154802F04DF91548114DFEF775FEF607F6
:10451000D4D528002430FEF76FFECFE7FEF770FFFA
:10452000094B0A489846FEF767FE49462000FFF708
:1045300051F9B307B2D47307BBD50848FEF75CFE48
:10454000BCE7C046106F0020486B00206C6B002059
:10455000C86B0020FC6B0020386F0020D86B002057
:10456000F0B5574645464E46DE46E0B583B099461F
:104570000CAB170004CB1B7801929A460EAB1D784A
:10458000BA4B984642461B6A546A234300D082E1E4
:10459000002F00D18AE1884223D0002800D12EE1EB
:1045A000002900D16CE153460F2452461C40602381
:1045B0001A409446012D2FD0002A19D13E007B1EAF
:1045C000012C00D1DDE0022C00D1FAE0006801E00E
:1045D0001E00013B0C680500A0424CD10431002BA9
:1045E000F6D103B0F0BCBB46B246A946A046F0BD2A
:1045F0003E007B1E012C00D1D2E0022C00D1EFE066
:10460000006801E01E00013B0C680500844232D1C5
:104610000431002BF6D1E4E77B1E012C00D186E0AB
:104620003E00022C02D113E01E00013B05680C681D
:10463000A54220D104300431002BF5D1D1E7A542A9
:1046400019D102300231002BCBD05C1E1E0023009A
:104650000022855E00228C5E6246002AEFD02D0487
:1046600024042D0C240CA542EBD0814B524691061C
:1046700001D51D401C400198FEF7C2FE7D48FEF7A3
:10468000BBFDBE1B092E00D80BE10127BB00DF19C3
:104690007F0039003000FDF7FBFE0928F6D839000D
:1046A0003000FDF7F5FE0A21FDF7F2FEBB46303182
:1046B000C8B2FEF7D7FB38000A21FDF7E9FE5B46DA
:1046C0000700092BEBD86C4E30002430FEF794FD28
:1046D00051462800FEF7F6FF30003030FEF78CFD23
:1046E00051462000FEF7EEFF43469B68002B19D091
:1046F0003000FEF781FD301DFEF77EFD43469868D1
:10470000002801D0FEF778FD4346DB68002B09D076
:1047100030001030FEF770FD4346D868002801D005
:10472000FEF76AFD4B46002B00D091E096E0FF2299
:1047300000250024934662463E0045570C57002A48
:1047400006D116E00025002445570C571E00013BFA
:104750005A4615401440A54200D0A0E00130013176
:10476000002BEFD13DE70025002445570C571E00D4
:10477000013BA54200D07EE701300131002BF2D190
:104780002FE7007840B201E01E00013B00240C57E7
:104790000500A04200D06EE70131002BF4D120E7E4
:1047A0000078FF2240B201E01E00013B002415000A
:1047B0000C5705401440AC4271D10131002BF3D1AC
:1047C0000FE70022805E01E01E00013B00228C5EAC
:1047D0000500A04200D04EE70231002BF4D100E7E3
:1047E0000022805E000401E01E00013B0C88050CE5
:1047F000AC4200D039E70231002BF5D1F1E6019847
:10480000FEF7FEFD1D48FEF7F7FC43469B68002BB4
:104810001AD0194E3000FEF7EFFC301DFEF7ECFC0D
:1048200043469868002801D0FEF7E6FC4346DB6863
:10483000002B09D030001030FEF7DEFC4346D8686C
:10484000002801D0FEF7D8FC4B46002B06D00A4EBC
:104850003000FEF7D1FC4846FEF7CEFC404601236F
:10486000424601212830136201F09AFF106F0020A8
:10487000FFFF0000886C0020486B00204C6C00207B
:104880000198FEF7BDFD1148FEF7B6FC43469B6854
:10489000002BBED1D8E701210D4801F081FFFF2395
:1048A000E4E63036F0B2FEF7DDFA0CE70198FEF7E9
:1048B000A7FD0848FEF7A0FC4846FEF7E1FC0121F1
:1048C00043460348196201F06BFFC0466C6C002040
:1048D000386F0020146C0020F0B54546DE46574680
:1048E0004E46E0B585B0984610AB1E78AE4B15002D
:1048F0009B465A461B6A526A0F000090134300D031
:1049000032E24346002B00D132E2009BA7495C0013
:104910006408201CFEF7BFF8002806D1A349201C1C
:10492000FEF7ACF8002800D125E10099081CFEF73D
:10493000B2F8002800D01BE2AF4200D11BE1002FEB
:1049400000D1D5E1002D00D1FDE100210098FEF756
:104950008FF8002805D0802212069446009B6344FD
:10496000009301235B429C46E044012E00D125E1E7
:104970003B688F499946181CFEF74BF84B465C0084
:10498000630803934B4601933B004646A9469A466B
:104990003700061C4B460021301C1C68FEF768F8E7
:1049A0004D46002800D0ABE0311C0098FEF71AF805
:1049B000039B02907D49181C9946FEF76CF800286D
:1049C00006D148467949FEF759F8002800D1DEE0C3
:1049D0000199081CFEF75FF8002800D0D9E0A9462D
:1049E0000199201CFDF7FBFF0021041CFEF740F895
:1049F000002800D0C6E0211C201CFEF74CF800283F
:104A000014D165006D086949281CFEF744F8002898
:104A100005D16649281CFEF731F8002806D0029916
:104A2000201CFEF733F8002800D19EE03E004D46E2
:104A300057460F98FEF7E4FC5E48FEF7DDFB434661
:104A40009E1B092E00D8A2E10124A3001C196400BA
:104A500021003000FDF71CFD0928F6D821003000A8
:104A6000FDF716FD0A21FDF713FDA0463031C8B24F
:104A7000FEF7F8F920000A21FDF70AFD434604007D
:104A8000092BEBD84C4C20002430FEF7B5FB3868DE
:104A9000FEF78AFF20003030FEF7AEFB2868FEF7F5
:104AA00083FF5B469B68002B19D02000FEF7A4FB18
:104AB000201DFEF7A1FB5B469868002801D0FEF799
:104AC0009BFB5B46DB68002B09D020001030FEF713
:104AD00093FB5B46D868002801D0FEF78DFB0E9B48
:104AE000002B05D02000FEF787FB0E98FEF784FB15
:104AF000584601235A4601212830136201F050FE26
:104B0000311C0098FDF76BFF039D02902749281C7C
:104B1000FDF7C1FF002800D062E72449281CFDF7FB
:104B2000ADFF002800D05BE765006D081F49281C19
:104B3000FDF7B1FF002800D052E71C49281CFDF703
:104B40009DFF002800D04BE70021201CFDF790FFBF
:104B5000431E9841002105000198FDF789FF431E7F
:104B60009841EDB2854200D03AE704239C46E144E7
:104B7000013F00D30EE705B0F0BCBB46B246A946E4
:104B8000A046F0BD80231B069C46644439E7A94635
:104B9000CAE7211C201CFDF77EFF002800D0DDE0C5
:104BA0003E00574645E7C046106F0020FFFF7F7F5D
:104BB000ACC52737886C0020486B00204646C246AB
:104BC000A946B846370043461E687349301CFDF7B6
:104BD00020FF4B461B6875000021041C01936D08E3
:104BE000FDF746FF00283FD10099201CFDF7FAFE93
:104BF0006A490290281CFDF74EFF002805D167493D
:104C0000281CFDF73BFF00283FD0311C301CFDF76E
:104C100042FF002865D1311C0198FDF7E0FE00211C
:104C2000041CFDF725FF002856D1211C201CFDF790
:104C300032FF002813D165006D085849281CFDF784
:104C40002AFF002805D15549281CFDF717FF002829
:104C500005D00298211CFDF70BFF002834D03E0040
:104C60004D464746D046E4E6211C0098FDF7B7FEC6
:104C70004A490290281CFDF70EFF0028CBD1474976
:104C8000281CFDF7FBFE0028C5D1019D43496C009F
:104C90006408201CFDF7FFFE0028BCD13F49201C02
:104CA000FDF7ECFE0028B6D10021301CFDF7E0FE38
:104CB000431E98410021041C281CFDF7D9FE431E09
:104CC0009841E4B28442A6D104239C46E044E144E6
:104CD000013F00D377E74EE780231B069C466444E0
:104CE000A9E70199081CFDF7D6FE0028B7D0EBE72D
:104CF0000F98FEF785FB2A48FEF77EFA5B469B6815
:104D0000002B1AD0274C2000FEF776FA201DFEF764
:104D100073FA5B469868002801D0FEF76DFA5B468F
:104D2000DB68002B09D020001030FEF765FA5B46E7
:104D3000D868002801D0FEF75FFA0E9B002B00D147
:104D4000D6E6184CCEE60F98FEF75AFB1648FEF74B
:104D500053FA5B469B68002BD4D1EEE70435013F44
:104D600000D208E72C681FE60121104801F018FD69
:104D70000F98FEF745FB0E48FEF73EFA0E98FEF739
:104D80007FFA01215B460948196201F009FD3036BE
:104D9000F0B2FEF767F875E6ACC52737FFFF7F7FF7
:104DA0004C6C0020486B00206C6C0020386F002099
:104DB000146C0020F0B54F469946544B4646D646F3
:104DC0009846C0B5171C42461B6A526A061C0D1C49
:104DD000134300D096E04C0064084D49201CFDF7B9
:104DE0005AFE002828D14A49201CFDF747FE00281A
:104DF00022D17C0064084649201CFDF74CFE0028A7
:104E000020D14349201CFDF739FE00281AD100218A
:104E1000281CFDF72DFE431E984100210400381C7C
:104E2000FDF726FE431E9841E4B284420AD1E0BC5D
:104E3000BA46B146A846F0BD291C281CFDF72BFE3A
:104E4000002858D1291C381CFDF7C9FD0021041C7D
:104E5000FDF70EFE00283FD10021301CFDF708FEB3
:104E6000002803D080231B069C466644211C201C7E
:104E7000FDF711FE00280ED163005B082449181CC1
:104E80009A46FDF708FE00281FD150462049FDF73D
:104E9000F5FD002819D10898FEF7B2FA1D4C1E48FE
:104EA000FEF7AAF9281CFEF77FFD20003030FEF740
:104EB000A3F9381CFEF778FD4846FEF7E1F9012119
:104EC00043461648196201F06BFC311C201CFDF7AB
:104ED000DDFD0028ABD0DEE780231B069C460021C9
:104EE000301C6444FDF7C4FD0028C5D080231B0698
:104EF0009C466644C0E7391C381CFDF7CCFD0028F1
:104F0000C9D094E70121054801F04AFC106F002048
:104F1000FFFF7F7F486B00206C6B0020386F002004
:104F2000F0B54F469946544B4646D6469846C0B5CE
:104F3000171C42461B6A526A061C0D1C134300D004
:104F400095E04C0064084D49201CFDF7A4FD0028A5
:104F500024D14A49201CFDF791FD00281ED17C0078
:104F600064084649201CFDF796FD00281CD14349E2
:104F7000201CFDF783FD002816D10021281CFDF719
:104F800077FD431E984100210400381CFDF770FD99
:104F9000431E9841E4B2844206D134E0291C281C07
:104FA000FDF779FD002848D1291C381CFDF717FDB5
:104FB0000021041CFDF75CFD002849D10021301CB4
:104FC000FDF756FD002803D080231B069C4666444F
:104FD000211C201CFDF75FFD002834D163005B0815
:104FE0002649181C9A46FDF756FD002805D1504663
:104FF0002249FDF743FD002825D0311C201CFDF778
:1050000045FD00281FD10898FEF7FAF91C48FEF765
:10501000F3F8281CFEF7C8FC1A48FEF7EDF8381C18
:10502000FEF7C2FC4846FEF72BF9404601234246F4
:1050300001212830136201F0B3FB391C381CFDF745
:105040002AFD0028DFD1E0BCBA46B146A846F0BD33
:1050500080231B069C460021301C6444FDF708FD9C
:105060000028BBD080231B069C466644B6E701217E
:10507000054801F095FBC046106F0020FFFF7F7FC1
:105080006C6B0020FC6B0020386F0020F0B54546AB
:105090009846CE4B4E46DE4699465746E0B516003A
:1050A0004A461B6A526A83B0041C0D1C134300D08D
:1050B0005CE10127011C281C3740FDF7D9FC0028C2
:1050C00061D1211C281C730779D5FDF7DFFC00286E
:1050D00000D190E1002F00D110E1BD49201CFDF767
:1050E00098FC67007F088246BA49381CFDF7D3FC5C
:1050F000002806D1B749381CFDF7C0FC002800D1B4
:10510000F9E0211C281CFDF76AFC0021071CFDF7B3
:10511000AFFC002800D017E100215046FDF7A8FCA5
:10512000002800D013E17B005B08AA49181C9B46AD
:10513000FDF7B1FC002800D010E15846A549FDF765
:105140009DFC002800D009E10C98FEF759F9A2480F
:10515000A24FFEF751F8281CFEF726FCB30700D536
:1051600059E1760700D554E19D48FEF745F8201C2B
:10517000FEF71AFC4046FEF783F801214B4699489A
:10518000196201F00DFBB3071ED5002F00D1C6E058
:105190008F49201CFDF73DFC67007F0882468D4942
:1051A000381CFDF778FC002806D18A49381CFDF729
:1051B00065FC002800D19EE00123019339E0FDF752
:1051C00065FC002800D1D5E0002F65D08049201C67
:1051D000FDF71FFC67007F0882467E49381CFDF7FB
:1051E0005AFC00285FD17B49381CFDF747FC00289A
:1051F00059D1002301936F007F087649381CFDF7D1
:105200004AFC002815D17349381CFDF737FC0028EB
:105210000FD10021201CFDF72BFC431E98410021DB
:105220000700281CFDF724FC431E9841FFB287426B
:1052300032D0211C281CFDF7D2FB0021071CFDF7F2
:1052400017FC002848D100215046FDF711FC00282A
:1052500003D080231B0653449A46391C381CFDF7A3
:105260001AFC002814D17B005B085A49181C9B4685
:10527000FDF711FC002805D158465649FDF7FEFB05
:10528000002805D05146381CFDF700FC002803D04B
:10529000019B002B00D057E703B0F0BCBB46B246E1
:1052A000A946A046F0BD211C281CFDF798FB002153
:1052B000071CFDF7DDFB00280CD100215046FDF74F
:1052C000D7FB0028E8D080231B0653449A460023CE
:1052D0000193C8E70023019380231B069C4600210D
:1052E00050466744FDF7C4FB0028BCD080231B0652
:1052F00053449A46B7E7012301937CE70C98FEF7E5
:105300007FF83548354FFDF777FF281CFEF74CFB3B
:10531000B3070ED400253448FDF76EFF10E00C985B
:10532000FEF76EF82C482D4FFDF766FF281CFEF7A0
:105330003BFB002538007830FDF75EFF7607EAD4A6
:10534000002D00D113E70FE701230193C4E7802369
:105350001B0653449A460123019384E75046391CA7
:10536000FDF786FB002800D0EEE695E701211D48F9
:1053700001F016FA022332001A401E4236D1002FE5
:1053800000D189E701921249201CFDF742FB67001A
:105390007F0882460F49381CFDF77DFB002806D1A7
:1053A0000C49381CFDF76AFB002800D123E7211CBB
:1053B000201CFDF770FB002800D13AE7291C281CAF
:1053C000FDF769FB002800D162E765E7106F002058
:1053D000ACC52737FFFF7F7F6C6B0020486B002038
:1053E000EC6B0020386F0020D86B0020002F96D087
:1053F00001230193C7E7B307F8D4002FF8D10C9825
:10540000FDF7FEFF0548FDF7F7FE281CFEF7CCFA76
:1054100080E701257FE701258CE7C0466C6B002003
:10542000F0B557464E464546DE46E0B57C4F85B062
:105430003C0091466A464C348846061C23CC23C265
:1054400001202168774C116002001A409246616A7F
:10545000226A0A4300D0D4E0052B29D8032B6ED84A
:10546000012B49D873005B086F49181C9B46FDF758
:1054700012FB002800D095E058466B49FDF7FEFA74
:10548000002800D08EE00021301CFDF7FFFA002834
:1054900000D187E05346002B27D14846FDF7B0FFE7
:1054A000624B63489946FDF7A7FE00239B46A3E0A5
:1054B0009A1F012A6FD873005B085B49181C9B4632
:1054C000FDF7E9FA002806D158465749FDF7D6FA04
:1054D000002800D174E0311C301CFDF7DCFA0028F4
:1054E0006ED15346002B00D18FE005B0F0BCBB4617
:1054F000B246A946A046F0BD73005B084A49181C95
:105500009B46FDF7C8FA00280BD158464649FDF7DF
:10551000B5FA002805D10021301CFDF7A9FA0028B2
:105520005CD15346002BE0D04846FDF769FF3F4B66
:105530003F489946FDF760FE01239B4614E0311C6D
:10554000301CFDF7A8FA431E984102239B465045A4
:10555000CBD04846FDF754FF344B35489946FDF70C
:105560004BFE5346002B47D05B466A469B00D05803
:10557000002801D0FDF740FE48463030FDF73CFEE4
:10558000301CFEF711FA4046FDF77AFE012129484A
:10559000216201F005F998433B005C33009300233E
:1055A0009B46D4E75346002B9FD04846FDF728FF83
:1055B0001E4B1F489946FDF71FFE00239B46D3E76D
:1055C0005346002B91D04846FDF71AFF174B184859
:1055D0009946FDF711FE03239B46C5E75346002B72
:1055E00000D082E74846FDF70BFF104B1048994664
:1055F000FDF702FE01239B4638007030FDF7FCFDED
:10560000B2E701210B4801F0CBF84846FDF7F8FE60
:10561000064B07489946FDF7EFFD03239B46EBE752
:10562000486C0020106F0020FFFF7F7F486B002038
:105630006C6B0020386F0020F0B54F464646D646CA
:10564000C0B5984608AB824601CB204F1B781500A9
:1056500099467A6A3B6A0E00134312D18D420BDCE5
:105660004C1BA245A44164423C62002C0DD1E0BC1D
:10567000BA46B146A846F0BD6C1AA245A4416442A0
:10568000F2E70121124801F08BF8FDF7B9FE11484D
:10569000FDF7B2FD49465046FEF714F80E4C0F4890
:1056A000FDF7AAFD49463000FEF70CF82000303027
:1056B000FDF7A2FD49462800FEF704F84046FDF735
:1056C000DFFD01210248396201F06AF8106F002005
:1056D000386F0020C06C0020486B00206C6B0020ED
:1056E000F0B54F464646D646C0B5984608AB82460A
:1056F00001CB204F1B78150099467A6A3B6A0E0051
:10570000134312D18D420BD84C1BA245A4416442D5
:105710003C62002C0DD1E0BCBA46B146A846F0BDB3
:105720006C1AA245A4416442F2E70121124801F03B
:1057300037F8FDF765FE1148FDF75EFD4946504616
:10574000FEF748F80E4C0F48FDF756FD494630006D
:10575000FEF740F820003030FDF74EFD49462800A6
:10576000FEF738F84046FDF78BFD0121024839620B
:1057700001F016F8106F0020386F0020C06C002078
:10578000486B00206C6B0020F0B557464E464546EE
:10579000DE46E0B585B0029310AB1B78944F0393BF
:1057A00011AB81461D78786A3B6A034300D099E1CA
:1057B000029B002B00D1A1E1914242D0002900D1EF
:1057C000DAE0002A00D109E10F231020039C2340D6
:1057D0000440012D00D173E0201E8846029C4DD16B
:1057E000A346013C012B1DD0022B59D0434618681B
:1057F000136805009A461E0001235B429C46053350
:105800005146824518D9081A814580414042386284
:10581000002800D06AE1D218002C12D0A346013C27
:10582000012BE1D140461678FF21B24605788C461F
:10583000280051468245E6D8401A814580414042C1
:10584000E5E705B0F0BCBB46B246A946A046F0BDB0
:10585000022B2DD043461D68012316685B429C46EF
:105860000533AE4217DCA81B8145804140423862B7
:10587000002800D0C6E0D218002CE2D02100013C64
:10588000012BE5D14046002500264557FF209657BD
:105890008446AE42E7DD701B814580414042E6E729
:1058A000414616880D885349B24628008C46A7E722
:1058B00040460025455F0020165E4E488446D0E7EE
:1058C000BA460298019419E0022B2BD0019B002BC1
:1058D00032D001230D685B4216689C460533B54201
:1058E0001BDA741BA145A441644257463C62002C5C
:1058F00000D088E0C918D2180028A2D0804601380C
:10590000012BE1D1019C0D781678002C2AD0FF24C0
:105910006DB276B2A446B542E3DBAC1BA145A4410F
:105920006442E2E7019C0D881688002C1FD0314CA0
:105930002DB2A44636B2D2E713680C689B461E000F
:10594000012325005B429C4605335F46A34504D9ED
:105950003C1BA145A4416442C7E7E41BA145A44107
:105960006442C2E7FF27B3462C00BC46EDE7214F57
:10597000B3462C00BC46E8E70F98FDF741FD1E48F2
:10598000FDF73AFCBB68002B17D01C4C2000FDF73C
:1059900033FC201DFDF730FCB868002801D0FDF76E
:1059A0002BFCFB68002B08D020001030FDF724FCF6
:1059B000F868002801D0FDF71FFC0E9B002B06D0D5
:1059C0000E4C2000FDF718FC0E98FDF715FC380072
:1059D0000123012128303B6200F0E2FE0F98FDF721
:1059E0000FFD0748FDF708FCBB68002BCDD1E4E7AD
:1059F000106F0020FFFF00004C6C0020486B00205F
:105A00006C6C00208846039A920604D5042B02D0C1
:105A100063461D401E400F98FDF7F2FC3E4B1800F8
:105A20009A467830FDF7E8FB48460399FDF74AFEB1
:105A300050464030FDF7E0FB4246029B9B1A9846D9
:105A4000092B55D90124A3001C19640021004046EC
:105A5000FCF71EFD0928F6D821004046FCF718FD8A
:105A60000A21FCF715FDA1463031C8B2FDF7FAF95D
:105A700020000A21FCF70CFD4B460400092BEBD853
:105A8000264C20002430FDF7B7FB039B28001900AB
:105A90009846FDF717FE20003030FDF7ADFB41467C
:105AA0003000FDF70FFEBB68002B16D02000FDF77D
:105AB000A3FB201DFDF7A0FBB868002801D0FDF76F
:105AC0009BFBFB68002B08D020001030FDF794FBF7
:105AD000F868002801D0FDF78FFB0E9B002B00D04B
